:03000000020003F8
:0C000300787FE4F6D8FD75810B02004AFE
:0600CB000408FEFCF8F041
:1000AF00E4FFFEE4FDFC0DBD00010CEDF44C70F619
:0B00BF000FBF00010EEF640D4E70E853
:0100CA002213
:10008F007590FF2094038508902095038509902093
:10009F009603850A90209703850B901200AF80E09E
:10000F0002008FE493A3F8E493A34003F68001F278
:10001F0008DFF48029E493A3F85407240CC8C333F2
:10002F00C4540F4420C8834004F456800146F6DFC1
:10003F00E4800B01020408102040809000CBE47E86
:10004F00019360BCA3FF543F30E509541FFEE493B6
:10005F00A360010ECF54C025E060A840B8E493A37D
:10006F00FAE493A3F8E493A3C8C582C8CAC583CAA8
:10007F00F0A3C8C582C8CAC583CADFE9DEE780BE60
:0100D100002E
:00000001FF
