:03000000020003F8
:0C000300787FE4F6D8FD75811902004AF0
:100102001009C0F9A4B0999282F880908883C6A1A0
:02011200868ED7
:1000E600E4FFFEE4FDFC0DBD00010CEDF44C70F6E2
:0B00F6000FBF00010EEF640D4E70E81C
:0101010022DB
:10008F00E4F5197590EFE4FB20900BEB25E025E0EC
:10009F002409F8E6F58020910BEB25E025E0240AF2
:1000AF00F8E6F58020920BEB25E025E0240BF8E62F
:1000BF00F58020930BEB25E025E0240CF8E6F58086
:1000CF001200E6AF9043070FEF25E0FF43070F8FB6
:0700DF00900BBB04B380ACE1
:10000F0002008FE493A3F8E493A34003F68001F278
:10001F0008DFF48029E493A3F85407240CC8C333F2
:10002F00C4540F4420C8834004F456800146F6DFC1
:10003F00E4800B0102040810204080900102E47E4E
:10004F00019360BCA3FF543F30E509541FFEE493B6
:10005F00A360010ECF54C025E060A840B8E493A37D
:10006F00FAE493A3F8E493A3C8C582C8CAC583CAA8
:10007F00F0A3C8C582C8CAC583CADFE9DEE780BE60
:0101140000EA
:00000001FF
