:03000000020006F5
:0C000600787FE4F6D8FD75811002010C33
:0901D500FFFEFDFBF7EFDFBF7F29
:0401B3007F107E2714
:1001B700E4FDFCEF1FAA0670011E4A6010C3ED9410
:0D01C7007DEC940050ED0DBD00010C80F0AA
:0101D4002208
:10010C0078087C007D007BFF7A0179D57E007F0921
:10011C001200E6D2AFD2A8D2AAD288D28AE4F5B81D
:10012C00F583F5821201B3AF8274082FF8E6F590CF
:0B013C00A3E5826409458370EB80D8C6
:03000300020147B0
:10014700C0E0C0D075D000C002C003C004C005C065
:0301570006C007D8
:10015A00E4FB75900F1201B37590F01201B30BBB5B
:02016A000AF099
:10016C00D007D006D005D004D003D002D0D0D0E038
:01017C003250
:0300130002017D6A
:10017D00C0E0C0D075D000C002C003C004C005C02F
:03018D0006C007A2
:10019000E4FB7590FF1201B37590001201B30BBB25
:0201A0000AF063
:1001A200D007D006D005D004D003D002D0D0D0E002
:0101B200321A
:10001600E709F608DFFA8046E709F208DFFA803ECC
:1000260088828C83E709F0A3DFFA8032E309F608B9
:10003600DFFA8078E309F208DFFA807088828C8321
:10004600E309F0A3DFFA806489828A83E0A3F608D5
:10005600DFFA805889828A83E0A3F208DFFA804CAF
:1000660080D280FA80C680D4806980F28033801086
:1000760080A680EA809A80A880DA80E280CA8033EF
:1000860089828A83ECFAE493A3C8C582C8CCC58367
:10009600CCF0A3C8C582C8CCC583CCDFE9DEE78037
:1000A6000D89828A83E493A3F608DFF9ECFAA9F0B6
:1000B600EDFB2289828A83ECFAE0A3C8C582C8CC0C
:1000C600C583CCF0A3C8C582C8CCC583CCDFEADE25
:1000D600E880DB89828A83E493A3F208DFF980CC87
:1000E60088F0EF60010E4E60C388F0ED2402B40480
:1000F6000050B9F582EB2402B4040050AF23234527
:06010600822390006673E5
:00000001FF
